{
  "_format": "hh-sol-artifact-1",
  "contractName": "Shipping",
  "sourceName": "contracts/shipping.sol",
  "abi": [
    {
      "anonymous": false,
      "inputs": [
        {
          "indexed": true,
          "internalType": "uint256",
          "name": "id",
          "type": "uint256"
        },
        {
          "indexed": false,
          "internalType": "string",
          "name": "name",
          "type": "string"
        },
        {
          "indexed": false,
          "internalType": "string",
          "name": "email",
          "type": "string"
        },
        {
          "indexed": false,
          "internalType": "string",
          "name": "receiving_address",
          "type": "string"
        },
        {
          "indexed": false,
          "internalType": "string",
          "name": "phone",
          "type": "string"
        },
        {
          "indexed": false,
          "internalType": "uint256",
          "name": "weight",
          "type": "uint256"
        },
        {
          "indexed": false,
          "internalType": "string",
          "name": "packageType",
          "type": "string"
        },
        {
          "indexed": false,
          "internalType": "uint256",
          "name": "price",
          "type": "uint256"
        },
        {
          "indexed": false,
          "internalType": "string",
          "name": "description",
          "type": "string"
        },
        {
          "indexed": false,
          "internalType": "string",
          "name": "location",
          "type": "string"
        },
        {
          "indexed": false,
          "internalType": "string",
          "name": "destination",
          "type": "string"
        },
        {
          "indexed": false,
          "internalType": "string",
          "name": "image",
          "type": "string"
        },
        {
          "indexed": false,
          "internalType": "string",
          "name": "status",
          "type": "string"
        }
      ],
      "name": "PackageCreated",
      "type": "event"
    },
    {
      "anonymous": false,
      "inputs": [
        {
          "indexed": true,
          "internalType": "uint256",
          "name": "id",
          "type": "uint256"
        },
        {
          "indexed": false,
          "internalType": "string",
          "name": "status",
          "type": "string"
        }
      ],
      "name": "PackageStatusUpdated",
      "type": "event"
    },
    {
      "inputs": [
        {
          "internalType": "string",
          "name": "_name",
          "type": "string"
        },
        {
          "internalType": "string",
          "name": "_email",
          "type": "string"
        },
        {
          "internalType": "string",
          "name": "_receiving_address",
          "type": "string"
        },
        {
          "internalType": "string",
          "name": "_phone",
          "type": "string"
        },
        {
          "internalType": "uint256",
          "name": "_weight",
          "type": "uint256"
        },
        {
          "internalType": "string",
          "name": "_packageType",
          "type": "string"
        },
        {
          "internalType": "uint256",
          "name": "_price",
          "type": "uint256"
        },
        {
          "internalType": "string",
          "name": "_description",
          "type": "string"
        },
        {
          "internalType": "string",
          "name": "_location",
          "type": "string"
        },
        {
          "internalType": "string",
          "name": "_destination",
          "type": "string"
        },
        {
          "internalType": "string",
          "name": "_image",
          "type": "string"
        }
      ],
      "name": "createPackage",
      "outputs": [],
      "stateMutability": "nonpayable",
      "type": "function"
    },
    {
      "inputs": [
        {
          "internalType": "uint256",
          "name": "_id",
          "type": "uint256"
        }
      ],
      "name": "getPackageById",
      "outputs": [
        {
          "components": [
            {
              "internalType": "string",
              "name": "name",
              "type": "string"
            },
            {
              "internalType": "string",
              "name": "email",
              "type": "string"
            },
            {
              "internalType": "string",
              "name": "receiving_address",
              "type": "string"
            },
            {
              "internalType": "string",
              "name": "phone",
              "type": "string"
            },
            {
              "internalType": "uint256",
              "name": "weight",
              "type": "uint256"
            },
            {
              "internalType": "string",
              "name": "packageType",
              "type": "string"
            },
            {
              "internalType": "uint256",
              "name": "price",
              "type": "uint256"
            },
            {
              "internalType": "string",
              "name": "description",
              "type": "string"
            },
            {
              "internalType": "string",
              "name": "location",
              "type": "string"
            },
            {
              "internalType": "string",
              "name": "destination",
              "type": "string"
            },
            {
              "internalType": "string",
              "name": "image",
              "type": "string"
            },
            {
              "internalType": "string",
              "name": "status",
              "type": "string"
            }
          ],
          "internalType": "struct Shipping.Package",
          "name": "",
          "type": "tuple"
        }
      ],
      "stateMutability": "view",
      "type": "function"
    },
    {
      "inputs": [],
      "name": "packageCount",
      "outputs": [
        {
          "internalType": "uint256",
          "name": "",
          "type": "uint256"
        }
      ],
      "stateMutability": "view",
      "type": "function"
    },
    {
      "inputs": [
        {
          "internalType": "uint256",
          "name": "",
          "type": "uint256"
        }
      ],
      "name": "packages",
      "outputs": [
        {
          "internalType": "string",
          "name": "name",
          "type": "string"
        },
        {
          "internalType": "string",
          "name": "email",
          "type": "string"
        },
        {
          "internalType": "string",
          "name": "receiving_address",
          "type": "string"
        },
        {
          "internalType": "string",
          "name": "phone",
          "type": "string"
        },
        {
          "internalType": "uint256",
          "name": "weight",
          "type": "uint256"
        },
        {
          "internalType": "string",
          "name": "packageType",
          "type": "string"
        },
        {
          "internalType": "uint256",
          "name": "price",
          "type": "uint256"
        },
        {
          "internalType": "string",
          "name": "description",
          "type": "string"
        },
        {
          "internalType": "string",
          "name": "location",
          "type": "string"
        },
        {
          "internalType": "string",
          "name": "destination",
          "type": "string"
        },
        {
          "internalType": "string",
          "name": "image",
          "type": "string"
        },
        {
          "internalType": "string",
          "name": "status",
          "type": "string"
        }
      ],
      "stateMutability": "view",
      "type": "function"
    },
    {
      "inputs": [
        {
          "internalType": "uint256",
          "name": "_id",
          "type": "uint256"
        },
        {
          "internalType": "string",
          "name": "_status",
          "type": "string"
        }
      ],
      "name": "updatePackageStatus",
      "outputs": [],
      "stateMutability": "nonpayable",
      "type": "function"
    }
  ],
  "bytecode": "0x6080604052600060015534801561001557600080fd5b50611cf0806100256000396000f3fe608060405234801561001057600080fd5b50600436106100575760003560e01c806323df3fe41461005c57806346b84cad14610078578063c216212a146100a8578063dc48eabb146100e3578063ee0ebe0c146100ff575b600080fd5b610076600480360381019061007191906111ad565b61011d565b005b610092600480360381019061008d9190611209565b6101c7565b60405161009f9190611407565b60405180910390f35b6100c260048036038101906100bd9190611209565b610801565b6040516100da9c9b9a99989796959493929190611482565b60405180910390f35b6100fd60048036038101906100f89190611582565b610db1565b005b610107610fb6565b6040516101149190611772565b60405180910390f35b600154821115610162576040517f08c379a0000000000000000000000000000000000000000000000000000000008152600401610159906117d9565b60405180910390fd5b600080600084815260200190815260200160002090508181600b0190816101899190611a05565b50827fd9873b0a8b6d446ad326892fd13e0d534afc3d800d4e9914a6aa0cc60c79ea81836040516101ba9190611ad7565b60405180910390a2505050565b6101cf610fbc565b600154821115610214576040517f08c379a000000000000000000000000000000000000000000000000000000000815260040161020b906117d9565b60405180910390fd5b6000808381526020019081526020016000206040518061018001604052908160008201805461024290611828565b80601f016020809104026020016040519081016040528092919081815260200182805461026e90611828565b80156102bb5780601f10610290576101008083540402835291602001916102bb565b820191906000526020600020905b81548152906001019060200180831161029e57829003601f168201915b505050505081526020016001820180546102d490611828565b80601f016020809104026020016040519081016040528092919081815260200182805461030090611828565b801561034d5780601f106103225761010080835404028352916020019161034d565b820191906000526020600020905b81548152906001019060200180831161033057829003601f168201915b5050505050815260200160028201805461036690611828565b80601f016020809104026020016040519081016040528092919081815260200182805461039290611828565b80156103df5780601f106103b4576101008083540402835291602001916103df565b820191906000526020600020905b8154815290600101906020018083116103c257829003601f168201915b505050505081526020016003820180546103f890611828565b80601f016020809104026020016040519081016040528092919081815260200182805461042490611828565b80156104715780601f1061044657610100808354040283529160200191610471565b820191906000526020600020905b81548152906001019060200180831161045457829003601f168201915b505050505081526020016004820154815260200160058201805461049490611828565b80601f01602080910402602001604051908101604052809291908181526020018280546104c090611828565b801561050d5780601f106104e25761010080835404028352916020019161050d565b820191906000526020600020905b8154815290600101906020018083116104f057829003601f168201915b505050505081526020016006820154815260200160078201805461053090611828565b80601f016020809104026020016040519081016040528092919081815260200182805461055c90611828565b80156105a95780601f1061057e576101008083540402835291602001916105a9565b820191906000526020600020905b81548152906001019060200180831161058c57829003601f168201915b505050505081526020016008820180546105c290611828565b80601f01602080910402602001604051908101604052809291908181526020018280546105ee90611828565b801561063b5780601f106106105761010080835404028352916020019161063b565b820191906000526020600020905b81548152906001019060200180831161061e57829003601f168201915b5050505050815260200160098201805461065490611828565b80601f016020809104026020016040519081016040528092919081815260200182805461068090611828565b80156106cd5780601f106106a2576101008083540402835291602001916106cd565b820191906000526020600020905b8154815290600101906020018083116106b057829003601f168201915b50505050508152602001600a820180546106e690611828565b80601f016020809104026020016040519081016040528092919081815260200182805461071290611828565b801561075f5780601f106107345761010080835404028352916020019161075f565b820191906000526020600020905b81548152906001019060200180831161074257829003601f168201915b50505050508152602001600b8201805461077890611828565b80601f01602080910402602001604051908101604052809291908181526020018280546107a490611828565b80156107f15780601f106107c6576101008083540402835291602001916107f1565b820191906000526020600020905b8154815290600101906020018083116107d457829003601f168201915b5050505050815250509050919050565b600060205280600052604060002060009150905080600001805461082490611828565b80601f016020809104026020016040519081016040528092919081815260200182805461085090611828565b801561089d5780601f106108725761010080835404028352916020019161089d565b820191906000526020600020905b81548152906001019060200180831161088057829003601f168201915b5050505050908060010180546108b290611828565b80601f01602080910402602001604051908101604052809291908181526020018280546108de90611828565b801561092b5780601f106109005761010080835404028352916020019161092b565b820191906000526020600020905b81548152906001019060200180831161090e57829003601f168201915b50505050509080600201805461094090611828565b80601f016020809104026020016040519081016040528092919081815260200182805461096c90611828565b80156109b95780601f1061098e576101008083540402835291602001916109b9565b820191906000526020600020905b81548152906001019060200180831161099c57829003601f168201915b5050505050908060030180546109ce90611828565b80601f01602080910402602001604051908101604052809291908181526020018280546109fa90611828565b8015610a475780601f10610a1c57610100808354040283529160200191610a47565b820191906000526020600020905b815481529060010190602001808311610a2a57829003601f168201915b505050505090806004015490806005018054610a6290611828565b80601f0160208091040260200160405190810160405280929190818152602001828054610a8e90611828565b8015610adb5780601f10610ab057610100808354040283529160200191610adb565b820191906000526020600020905b815481529060010190602001808311610abe57829003601f168201915b505050505090806006015490806007018054610af690611828565b80601f0160208091040260200160405190810160405280929190818152602001828054610b2290611828565b8015610b6f5780601f10610b4457610100808354040283529160200191610b6f565b820191906000526020600020905b815481529060010190602001808311610b5257829003601f168201915b505050505090806008018054610b8490611828565b80601f0160208091040260200160405190810160405280929190818152602001828054610bb090611828565b8015610bfd5780601f10610bd257610100808354040283529160200191610bfd565b820191906000526020600020905b815481529060010190602001808311610be057829003601f168201915b505050505090806009018054610c1290611828565b80601f0160208091040260200160405190810160405280929190818152602001828054610c3e90611828565b8015610c8b5780601f10610c6057610100808354040283529160200191610c8b565b820191906000526020600020905b815481529060010190602001808311610c6e57829003601f168201915b50505050509080600a018054610ca090611828565b80601f0160208091040260200160405190810160405280929190818152602001828054610ccc90611828565b8015610d195780601f10610cee57610100808354040283529160200191610d19565b820191906000526020600020905b815481529060010190602001808311610cfc57829003601f168201915b50505050509080600b018054610d2e90611828565b80601f0160208091040260200160405190810160405280929190818152602001828054610d5a90611828565b8015610da75780601f10610d7c57610100808354040283529160200191610da7565b820191906000526020600020905b815481529060010190602001808311610d8a57829003601f168201915b505050505090508c565b60016000815480929190610dc490611b28565b91905055506040518061018001604052808c81526020018b81526020018a81526020018981526020018881526020018781526020018681526020018581526020018481526020018381526020018281526020016040518060400160405280600781526020017f70656e64696e670000000000000000000000000000000000000000000000000081525081525060008060015481526020019081526020016000206000820151816000019081610e799190611a05565b506020820151816001019081610e8f9190611a05565b506040820151816002019081610ea59190611a05565b506060820151816003019081610ebb9190611a05565b506080820151816004015560a0820151816005019081610edb9190611a05565b5060c0820151816006015560e0820151816007019081610efb9190611a05565b50610100820151816008019081610f129190611a05565b50610120820151816009019081610f299190611a05565b5061014082015181600a019081610f409190611a05565b5061016082015181600b019081610f579190611a05565b509050506001547f42b08a63ad13f95f4fe81a333cbb4dc0be0d79424f58a42d231a83994301b64d8c8c8c8c8c8c8c8c8c8c8c604051610fa19b9a99989796959493929190611bbc565b60405180910390a25050505050505050505050565b60015481565b6040518061018001604052806060815260200160608152602001606081526020016060815260200160008152602001606081526020016000815260200160608152602001606081526020016060815260200160608152602001606081525090565b6000604051905090565b600080fd5b600080fd5b6000819050919050565b61104481611031565b811461104f57600080fd5b50565b6000813590506110618161103b565b92915050565b600080fd5b600080fd5b6000601f19601f8301169050919050565b7f4e487b7100000000000000000000000000000000000000000000000000000000600052604160045260246000fd5b6110ba82611071565b810181811067ffffffffffffffff821117156110d9576110d8611082565b5b80604052505050565b60006110ec61101d565b90506110f882826110b1565b919050565b600067ffffffffffffffff82111561111857611117611082565b5b61112182611071565b9050602081019050919050565b82818337600083830152505050565b600061115061114b846110fd565b6110e2565b90508281526020810184848401111561116c5761116b61106c565b5b61117784828561112e565b509392505050565b600082601f83011261119457611193611067565b5b81356111a484826020860161113d565b91505092915050565b600080604083850312156111c4576111c3611027565b5b60006111d285828601611052565b925050602083013567ffffffffffffffff8111156111f3576111f261102c565b5b6111ff8582860161117f565b9150509250929050565b60006020828403121561121f5761121e611027565b5b600061122d84828501611052565b91505092915050565b600081519050919050565b600082825260208201905092915050565b60005b83811015611270578082015181840152602081019050611255565b60008484015250505050565b600061128782611236565b6112918185611241565b93506112a1818560208601611252565b6112aa81611071565b840191505092915050565b6112be81611031565b82525050565b60006101808301600083015184820360008601526112e2828261127c565b915050602083015184820360208601526112fc828261127c565b91505060408301518482036040860152611316828261127c565b91505060608301518482036060860152611330828261127c565b915050608083015161134560808601826112b5565b5060a083015184820360a086015261135d828261127c565b91505060c083015161137260c08601826112b5565b5060e083015184820360e086015261138a828261127c565b9150506101008301518482036101008601526113a6828261127c565b9150506101208301518482036101208601526113c2828261127c565b9150506101408301518482036101408601526113de828261127c565b9150506101608301518482036101608601526113fa828261127c565b9150508091505092915050565b6000602082019050818103600083015261142181846112c4565b905092915050565b600082825260208201905092915050565b600061144582611236565b61144f8185611429565b935061145f818560208601611252565b61146881611071565b840191505092915050565b61147c81611031565b82525050565b600061018082019050818103600083015261149d818f61143a565b905081810360208301526114b1818e61143a565b905081810360408301526114c5818d61143a565b905081810360608301526114d9818c61143a565b90506114e8608083018b611473565b81810360a08301526114fa818a61143a565b905061150960c0830189611473565b81810360e083015261151b818861143a565b9050818103610100830152611530818761143a565b9050818103610120830152611545818661143a565b905081810361014083015261155a818561143a565b905081810361016083015261156f818461143a565b90509d9c50505050505050505050505050565b60008060008060008060008060008060006101608c8e0312156115a8576115a7611027565b5b60008c013567ffffffffffffffff8111156115c6576115c561102c565b5b6115d28e828f0161117f565b9b505060208c013567ffffffffffffffff8111156115f3576115f261102c565b5b6115ff8e828f0161117f565b9a505060408c013567ffffffffffffffff8111156116205761161f61102c565b5b61162c8e828f0161117f565b99505060608c013567ffffffffffffffff81111561164d5761164c61102c565b5b6116598e828f0161117f565b985050608061166a8e828f01611052565b97505060a08c013567ffffffffffffffff81111561168b5761168a61102c565b5b6116978e828f0161117f565b96505060c06116a88e828f01611052565b95505060e08c013567ffffffffffffffff8111156116c9576116c861102c565b5b6116d58e828f0161117f565b9450506101008c013567ffffffffffffffff8111156116f7576116f661102c565b5b6117038e828f0161117f565b9350506101208c013567ffffffffffffffff8111156117255761172461102c565b5b6117318e828f0161117f565b9250506101408c013567ffffffffffffffff8111156117535761175261102c565b5b61175f8e828f0161117f565b9150509295989b509295989b9093969950565b60006020820190506117876000830184611473565b92915050565b7f5061636b61676520646f6573206e6f7420657869737400000000000000000000600082015250565b60006117c3601683611429565b91506117ce8261178d565b602082019050919050565b600060208201905081810360008301526117f2816117b6565b9050919050565b7f4e487b7100000000000000000000000000000000000000000000000000000000600052602260045260246000fd5b6000600282049050600182168061184057607f821691505b602082108103611853576118526117f9565b5b50919050565b60008190508160005260206000209050919050565b60006020601f8301049050919050565b600082821b905092915050565b6000600883026118bb7fffffffffffffffffffffffffffffffffffffffffffffffffffffffffffffffff8261187e565b6118c5868361187e565b95508019841693508086168417925050509392505050565b6000819050919050565b60006119026118fd6118f884611031565b6118dd565b611031565b9050919050565b6000819050919050565b61191c836118e7565b61193061192882611909565b84845461188b565b825550505050565b600090565b611945611938565b611950818484611913565b505050565b5b818110156119745761196960008261193d565b600181019050611956565b5050565b601f8211156119b95761198a81611859565b6119938461186e565b810160208510156119a2578190505b6119b66119ae8561186e565b830182611955565b50505b505050565b600082821c905092915050565b60006119dc600019846008026119be565b1980831691505092915050565b60006119f583836119cb565b9150826002028217905092915050565b611a0e82611236565b67ffffffffffffffff811115611a2757611a26611082565b5b611a318254611828565b611a3c828285611978565b600060209050601f831160018114611a6f5760008415611a5d578287015190505b611a6785826119e9565b865550611acf565b601f198416611a7d86611859565b60005b82811015611aa557848901518255600182019150602085019450602081019050611a80565b86831015611ac25784890151611abe601f8916826119cb565b8355505b6001600288020188555050505b505050505050565b60006020820190508181036000830152611af1818461143a565b905092915050565b7f4e487b7100000000000000000000000000000000000000000000000000000000600052601160045260246000fd5b6000611b3382611031565b91507fffffffffffffffffffffffffffffffffffffffffffffffffffffffffffffffff8203611b6557611b64611af9565b5b600182019050919050565b7f70656e64696e6700000000000000000000000000000000000000000000000000600082015250565b6000611ba6600783611429565b9150611bb182611b70565b602082019050919050565b6000610180820190508181036000830152611bd7818e61143a565b90508181036020830152611beb818d61143a565b90508181036040830152611bff818c61143a565b90508181036060830152611c13818b61143a565b9050611c22608083018a611473565b81810360a0830152611c34818961143a565b9050611c4360c0830188611473565b81810360e0830152611c55818761143a565b9050818103610100830152611c6a818661143a565b9050818103610120830152611c7f818561143a565b9050818103610140830152611c94818461143a565b9050818103610160830152611ca881611b99565b90509c9b50505050505050505050505056fea2646970667358221220e5e435c929afa93c2a7c88fdd8fdc8ea1eabf1101d87cd58848e5741b298e85f64736f6c63430008120033",
  "linkReferences": {},
  "deployedLinkReferences": {}
}